{
  "_format": "hh-sol-artifact-1",
  "contractName": "ElectionVoting",
  "sourceName": "contracts/ElectionVoting.sol",
  "abi": [
    {
      "anonymous": false,
      "inputs": [
        {
          "indexed": true,
          "internalType": "address",
          "name": "voter",
          "type": "address"
        },
        {
          "indexed": false,
          "internalType": "uint256",
          "name": "epicHash",
          "type": "uint256"
        },
        {
          "indexed": false,
          "internalType": "uint256",
          "name": "candidateId",
          "type": "uint256"
        },
        {
          "indexed": false,
          "internalType": "uint256",
          "name": "wardId",
          "type": "uint256"
        }
      ],
      "name": "VoteCasted",
      "type": "event"
    },
    {
      "inputs": [
        {
          "internalType": "uint256",
          "name": "",
          "type": "uint256"
        }
      ],
      "name": "candidates",
      "outputs": [
        {
          "internalType": "uint256",
          "name": "id",
          "type": "uint256"
        },
        {
          "internalType": "string",
          "name": "name",
          "type": "string"
        },
        {
          "internalType": "uint256",
          "name": "voteCount",
          "type": "uint256"
        }
      ],
      "stateMutability": "view",
      "type": "function"
    },
    {
      "inputs": [
        {
          "internalType": "uint256",
          "name": "",
          "type": "uint256"
        }
      ],
      "name": "hasVotedByEpic",
      "outputs": [
        {
          "internalType": "bool",
          "name": "",
          "type": "bool"
        }
      ],
      "stateMutability": "view",
      "type": "function"
    },
    {
      "inputs": [
        {
          "internalType": "uint256",
          "name": "_candidateId",
          "type": "uint256"
        },
        {
          "internalType": "string",
          "name": "_name",
          "type": "string"
        }
      ],
      "name": "setCandidate",
      "outputs": [],
      "stateMutability": "nonpayable",
      "type": "function"
    },
    {
      "inputs": [
        {
          "internalType": "uint256",
          "name": "_epicHash",
          "type": "uint256"
        },
        {
          "internalType": "uint256",
          "name": "_candidateId",
          "type": "uint256"
        },
        {
          "internalType": "uint256",
          "name": "_wardId",
          "type": "uint256"
        }
      ],
      "name": "vote",
      "outputs": [],
      "stateMutability": "nonpayable",
      "type": "function"
    }
  ],
  "bytecode": "0x608060405234801561001057600080fd5b50610bd3806100206000396000f3fe608060405234801561001057600080fd5b506004361061004c5760003560e01c80633477ee2e146100515780638a6655d6146100835780639c9d5dea1461009f578063b93b3511146100bb575b600080fd5b61006b600480360381019061006691906104a0565b6100eb565b60405161007a9392919061056c565b60405180910390f35b61009d600480360381019061009891906105aa565b61019d565b005b6100b960048036038101906100b49190610662565b610386565b005b6100d560048036038101906100d091906104a0565b610440565b6040516100e291906106dd565b60405180910390f35b600160205280600052604060002060009150905080600001549080600101805461011490610727565b80601f016020809104026020016040519081016040528092919081815260200182805461014090610727565b801561018d5780601f106101625761010080835404028352916020019161018d565b820191906000526020600020905b81548152906001019060200180831161017057829003601f168201915b5050505050908060020154905083565b60008084815260200190815260200160002060009054906101000a900460ff16156101fd576040517f08c379a00000000000000000000000000000000000000000000000000000000081526004016101f4906107ca565b60405180910390fd5b60008303610240576040517f08c379a000000000000000000000000000000000000000000000000000000000815260040161023790610836565b60405180910390fd5b60006001600084815260200190815260200160002090506000816000015414801561026c575060008314155b1561027f578281600001819055506102e7565b600083036102e65760008160000154036102e557600081600001819055506040518060400160405280600481526020017f4e4f5441000000000000000000000000000000000000000000000000000000008152508160010190816102e39190610a31565b505b5b5b60018160020160008282546102fc9190610b32565b92505081905550600160008086815260200190815260200160002060006101000a81548160ff0219169083151502179055503373ffffffffffffffffffffffffffffffffffffffff167fdeab8ee83eba63bd94fc0587073ddbf10ed10cffe1e93c8b63411b7fa3ec021485858560405161037893929190610b66565b60405180910390a250505050565b604051806060016040528084815260200183838080601f016020809104026020016040519081016040528093929190818152602001838380828437600081840152601f19601f82011690508083019250505050505050815260200160016000868152602001908152602001600020600201548152506001600085815260200190815260200160002060008201518160000155602082015181600101908161042d9190610a31565b5060408201518160020155905050505050565b60006020528060005260406000206000915054906101000a900460ff1681565b600080fd5b600080fd5b6000819050919050565b61047d8161046a565b811461048857600080fd5b50565b60008135905061049a81610474565b92915050565b6000602082840312156104b6576104b5610460565b5b60006104c48482850161048b565b91505092915050565b6104d68161046a565b82525050565b600081519050919050565b600082825260208201905092915050565b60005b838110156105165780820151818401526020810190506104fb565b60008484015250505050565b6000601f19601f8301169050919050565b600061053e826104dc565b61054881856104e7565b93506105588185602086016104f8565b61056181610522565b840191505092915050565b600060608201905061058160008301866104cd565b81810360208301526105938185610533565b90506105a260408301846104cd565b949350505050565b6000806000606084860312156105c3576105c2610460565b5b60006105d18682870161048b565b93505060206105e28682870161048b565b92505060406105f38682870161048b565b9150509250925092565b600080fd5b600080fd5b600080fd5b60008083601f840112610622576106216105fd565b5b8235905067ffffffffffffffff81111561063f5761063e610602565b5b60208301915083600182028301111561065b5761065a610607565b5b9250929050565b60008060006040848603121561067b5761067a610460565b5b60006106898682870161048b565b935050602084013567ffffffffffffffff8111156106aa576106a9610465565b5b6106b68682870161060c565b92509250509250925092565b60008115159050919050565b6106d7816106c2565b82525050565b60006020820190506106f260008301846106ce565b92915050565b7f4e487b7100000000000000000000000000000000000000000000000000000000600052602260045260246000fd5b6000600282049050600182168061073f57607f821691505b602082108103610752576107516106f8565b5b50919050565b7f546869732045504943206e756d6265722068617320616c726561647920766f7460008201527f6564000000000000000000000000000000000000000000000000000000000000602082015250565b60006107b46022836104e7565b91506107bf82610758565b604082019050919050565b600060208201905081810360008301526107e3816107a7565b9050919050565b7f496e76616c696420455049432068617368000000000000000000000000000000600082015250565b60006108206011836104e7565b915061082b826107ea565b602082019050919050565b6000602082019050818103600083015261084f81610813565b9050919050565b7f4e487b7100000000000000000000000000000000000000000000000000000000600052604160045260246000fd5b60008190508160005260206000209050919050565b60006020601f8301049050919050565b600082821b905092915050565b6000600883026108e77fffffffffffffffffffffffffffffffffffffffffffffffffffffffffffffffff826108aa565b6108f186836108aa565b95508019841693508086168417925050509392505050565b6000819050919050565b600061092e6109296109248461046a565b610909565b61046a565b9050919050565b6000819050919050565b61094883610913565b61095c61095482610935565b8484546108b7565b825550505050565b600090565b610971610964565b61097c81848461093f565b505050565b5b818110156109a057610995600082610969565b600181019050610982565b5050565b601f8211156109e5576109b681610885565b6109bf8461089a565b810160208510156109ce578190505b6109e26109da8561089a565b830182610981565b50505b505050565b600082821c905092915050565b6000610a08600019846008026109ea565b1980831691505092915050565b6000610a2183836109f7565b9150826002028217905092915050565b610a3a826104dc565b67ffffffffffffffff811115610a5357610a52610856565b5b610a5d8254610727565b610a688282856109a4565b600060209050601f831160018114610a9b5760008415610a89578287015190505b610a938582610a15565b865550610afb565b601f198416610aa986610885565b60005b82811015610ad157848901518255600182019150602085019450602081019050610aac565b86831015610aee5784890151610aea601f8916826109f7565b8355505b6001600288020188555050505b505050505050565b7f4e487b7100000000000000000000000000000000000000000000000000000000600052601160045260246000fd5b6000610b3d8261046a565b9150610b488361046a565b9250828201905080821115610b6057610b5f610b03565b5b92915050565b6000606082019050610b7b60008301866104cd565b610b8860208301856104cd565b610b9560408301846104cd565b94935050505056fea26469706673582212209761c7bba910d92e3eddcb7ccb0061f78375c3cc2ef9c4998fd458ce657018b364736f6c63430008180033",
  "linkReferences": {},
  "deployedLinkReferences": {}
}